S021000052544F532D5446542D4C43442D494C49393334312D6C76676C2E73726563E2
S21440000038C34320E1164200DF164200DF164200A6
S214400010DF164200DF164200DF16420000000000F6
S21440002000000000000000000000000061104000DA
S214400030DF16420000000000011140006911400038
S214400040DF164200DF164200DF164200DF1642008F
S214400050DF164200DF164200DF164200DF1642007F
S214400060DF16420000000000B5124200C9124200EE
S214400070DD124200DF164200251D4200DF16420018
S214400080F112420005134200DF164200DF1642001E
S214400090DF164200DF164200DF164200DF1642003F
S2144000A0DF164200DF164200DF164200DF1642002F
S2144000B0DF164200AD0E4000DF164200DF1642005B
S2144000C0DF164200DF164200DF164200DF1642000F
S2144000D0DF164200DF164200DF164200DF164200FF
S2144000E0C10E4000DF164200DF164200DF16420017
S2144000F0DF164200DF164200DF164200DF164200DF
S214400100DF164200DF164200DF164200DF164200CE
S214400110DF16420000000000000000000000000063
S214400120DF164200DF164200DF164200DF164200AE
S214400130DF164200DF164200DF164200DF1642009E
S214400140DF164200DF164200DF164200DF1642008E
S214400150DF164200DF164200DF164200DF1642007E
S214400160DF164200DF16420010B5054C237833B93F
S214400170044B13B10448AFF300800123237010BD35
S214400180700A402000000000180A43000C4B43B1A0
S2144001900C480D4910B5AFF300800C48036823B9EE
S2144001A010BD0A48036833B97047094B002BF7D097
S2144001B0BDE810401847064B002BF5D0184700BF47
S2144001C000000000180A4300740A4020180A430042
S2144001D00000000021B9436823F0010343607047E4
S2144001E0436843F00103436070470162704730B490
S2144001F085688468A54203D085688468AC42FBD194
S21440020061B1C4F3015000EB8005C4F3034000EB3A
S214400210450014F4800F18BF0C30086042B1C4F398
S214400220023101EB8101C4F3032000EB4101116070
S21440023043B1C4F3021202EB820204F00F0404EB53
S21440024042041C6030BC7047F0B4446814F0010FA0
S21440025005D00C2903D90C394FF4800700E000275D
S2144002601C4CA4FB0356F60806EB8605A3EB450399
S21440027043EA0613A4FB0265ED0843EA053305EBA3
S2144002808505A2EB450543EA05233B43A4FB014213
S214400290D20843EA025302EB8202A1EB420143EA50
S2144002A00141836913F0040FFBD0036843F0010358
S2144002B00360836913F0010FFBD00123C3618160A3
S2144002C0036823F001030360C06A00F00100F0BC3D
S2144002D0704700BFCDCCCCCC70B42A4DA5FB0346AE
S2144002E0F608039C640544EA067406EB8606A3EB10
S2144002F0460344EA0363A5FB0264E40843EA045366
S21440030004EB8404A2EB440243EA02421E4BA3FBE6
S21440031001439B0942EA03121C4BA3FB01435B09C2
S214400320A5FB0364E40804EB8404A3EB44031A43EC
S214400330A5FB0143DB0803EB8304A1EB440142EA3F
S2144003400122A5FB0315ED0805EB8505A3EB450546
S21440035042EA0532836913F0040FFBD0036843F08A
S21440036002030360836913F0010FFBD00123C361CE
S214400370C260036823F002030360C06A00F0020014
S21440038070BC7047CDCCCCCCD34D62101F85EB51A2
S214400390012923DDF0B5864601276FF0404604E08C
S2144003A040F8235001378F4217D05EF8045F17F0AD
S2144003B0FF03F5D0FCB2A21950F822209542EFDA9E
S2144003C040F82420013B13F0FF03E9D01C469A195D
S2144003D050F822209542F3DBE2E7F0BD704700007C
S2144003E02DE9F04F89B00C20244CA0471020A047A0
S2144003F00C20A0471020A047214C2046214EB04755
S214400400214D2846B04702A8DFF884B0D84702A955
S21440041028461E4B98476B6843F080036B6001A8E4
S214400420DFF87090C84700268DF8056001AA31466F
S2144004302846DFF86480C0476E664FF4007AC5F8F9
S2144004406CA001276F6102A8D84702A920460F4B2F
S2144004509847636843F08003636001A8C8478DF8F7
S214400460056001AA39462046C0476766C4F86CA0B6
S2144004700223636109B0BDE8F08F00BF3914420023
S21440048000400640D50E400000C00340E50D400049
S214400490A90D4000D90D4000790D400038B5012225
S2144004A0144B5A61022203F520339A61124D002301
S2144004B04FF400224FF060512846104CA0470023CE
S2144004C04FF400524FF040512846A04705F50075BE
S2144004D000234FF400624FF020512846A0470023E7
S2144004E04FF080424FF020512846A0470448054B25
S2144004F0984738BD00C0034000120E4081104200AD
S214400500C2DB03000100402038B50122144B9A613B
S214400510022203F520335A61124D00234FF08042E9
S2144005204FF060512846104CA04700234FF400621D
S2144005304FF040512846A047A5F5007500234FF4DC
S21440054000224FF020512846A04700234FF4005287
S2144005504FF020512846A0470448054B984738BDE1
S21440056000C0034000140E4081104200C2DB03006E
S21440057001004020F8B52DED028B08EE100A2F4DF5
S21440058000234FF400224FF0405128462C4CA04701
S2144005902C4E00234FF400624FF060513046A04787
S2144005A000234FF080424FF020513046A0470023B2
S2144005B04FF400524FF020512846A047224E0127C4
S2144005C07761224C022363612148224B9847676635
S2144005D0A56E00237366B66E1F4B98476766D4EDCC
S2144005E01A7A07EE106AB8EEC76A07EE105AF8EEA7
S2144005F0C76A86EE267AF7EE006A37EE667AF8EE37
S214400600E77A27EE877AF8EEC87A67EE877A9FED24
S214400610137A67EE877A9FED127AF4EE477AF1EE18
S21440062010FA9FED107A48BFF0EE477AFDEEE77A73
S21440063017EE900ABDEC028BF8BD00BF00120E40CC
S2144006408110420000140E4000C0034000400640A7
S214400650C2DB0300010040209D0440000000803AB9
S2144006600000C842000080442DE9F04FC3B08346E6
S2144006708A460192194B984701AD0DF582792C4672
S2144006804FF03308164F174E4046B8470023736660
S214400690B36E44F8043F4C45F6D1402102A8124BB5
S2144006A09847229BCBF80030104B9847104B0121BF
S2144006B059669A6E45F8042FA542F9D1402102A802
S2144006C0094B9847229BCAF800304FF49670094B66
S2144006D09847019B186043B0BDE8F08F9D044000EA
S2144006E00100402000C0034091034000090540003F
S2144006F0004006407505400010B5A0F2EE20C0EB65
S21440070000100001154C84FB00E40444C017C0EB05
S214400710E420F028A8BFF02020EAE070029C206089
S214400720A1F51B71C1EB0160C1EB800189010C484A
S21440073080FB01400844C917C1EBE02101F5A071D8
S214400740B1F5A07FA8BF4FF4A07121EAE17119600E
S214400750B2F5487FACBF0020012010BD35679ACD6A
S2144007601FC297BC30B587B004460D4603AA04A9FD
S21440077005A8054B984700952346039A0499059883
S214400780024CA04707B030BD69064000F90640005D
S21440079040220B4B5A634FF0006203F5C0635A6326
S2144007A0084A136913F4007FFBD0064BD8601A46FC
S2144007B0136913F4007FFBD04022014B1A63704745
S2144007C0000E0E400080004010B504462A20354BEF
S2144007D09847354BB3F90010C1F30720334A1369E5
S2144007E013F4007FFBD0314BD860C9B21A46136968
S2144007F013F4007FFBD02D4BD9609CB12C4BB3F942
S2144008000010C1F30720294A136913F4007FFBD078
S214400810264BD860C9B21A46136913F4007FFBD042
S214400820224BD960214A136913F4007FFBD04FF066
S2144008300062204B1A632B201A4B98471E4BB3F985
S2144008400010C1F30720194A136913F4007FFBD048
S214400850164BD860C9B21A46136913F4007FFBD012
S214400860124BD9609CB1154BB3F90010C1F3072069
S2144008700E4A136913F4007FFBD00C4BD860C9B204
S2144008801A46136913F4007FFBD0084BD960074A19
S214400890136913F4007FFBD04FF00062054B1A63D8
S2144008A010BD00BF91074000900A402000800040E5
S2144008B08C0A402000140E40920A40208E0A4020A7
S2144008C008B5044B1880044B19800020034B98470A
S2144008D008BD00BF900A4020920A4020C907400049
S2144008E008B5044B1880044B19800120034B9847E9
S2144008F008BD00BF8C0A40208E0A4020C907400031
S21440090010B5064C20800648018006490A80064AF3
S21440091013800120054B984710BD00BF900A402029
S214400920920A40208C0A40208E0A4020C907400088
S21440093070B504460E462C20104B9847A6B1751E3F
S214400940A01E0F4B81781A6912F4007FFBD0D96045
S21440095030F8021F090A1A6912F4007FFBD0D960EA
S214400960013DB5F1FF3FEDD1054A136913F4007F11
S214400970FBD04FF00062034B1A6370BD91074000F6
S2144009800080004000140E4010B580F0050000F0D6
S2144009900103002B0CBF4824082410F0020F18BF98
S2144009A044F0800410F0040F18BF44F020043620B2
S2144009B0094B9847094A136913F4007FFBD0074B4D
S2144009C0DC601A46136913F4007FFBD04FF00062D8
S2144009D0034B1A6310BD00BF9107400000800040E3
S2144009E000140E402DE9F04184B0032704AD45F8CD
S2144009F0047DA54C2046A54B984700260096A44B60
S214400A00324629462046DFF8A882C0473246394655
S214400A102046A04B984701262660294620469E4BF6
S214400A209847F023E360E6609C4E30469C4CA047D7
S214400A309C4D4FF080772F63DFF878824046A04782
S214400A406F634046A0472F633046A0471120964D1F
S214400A50A847964F4FF00068C7F830803046A0470A
S214400A602920A847C7F83080CD20A847864A136972
S214400A7013F4007FFBD03922834BDA601A461369A1
S214400A8013F4007FFBD02C227F4BDA601A461369A2
S214400A9013F4007FFBD000227B4BDA601A461369C2
S214400AA013F4007FFBD03422774BDA601A46136982
S214400AB013F4007FFBD00222734BDA601A461369A8
S214400AC013F4007FFBD04FF00062784B1A63CF20C0
S214400AD0754B98476C4A136913F4007FFBD000228D
S214400AE0694BDA601A46136913F4007FFBD0AA22DA
S214400AF0654BDA601A46136913F4007FFBD0B022C8
S214400B00614BDA601A46136913F4007FFBD04FF04E
S214400B100062664B1A63F720634B98475A4A13693C
S214400B2013F4007FFBD03022574BDA601A46136925
S214400B3013F4007FFBD04FF000625C4B1A63C0207A
S214400B40594B9847504A136913F4007FFBD025222F
S214400B504D4BDA601A46136913F4007FFBD04FF012
S214400B600062524B1A63C1204F4B9847464A13695E
S214400B7013F4007FFBD01122434BDA601A46136908
S214400B8013F4007FFBD04FF00062484B1A63C52039
S214400B90454B98473C4A136913F4007FFBD05C22D0
S214400BA0394BDA601A46136913F4007FFBD04C22A7
S214400BB0354BDA601A46136913F4007FFBD04FF0CA
S214400BC000623A4B1A63C720374B98472E4A136940
S214400BD013F4007FFBD094222B4BDA601A4613693D
S214400BE013F4007FFBD04FF00062304B1A63E820CE
S214400BF02D4B9847244A136913F4007FFBD0852277
S214400C00214BDA601A46136913F4007FFBD00122A9
S214400C101D4BDA601A46136913F4007FFBD0782226
S214400C20194BDA601A46136913F4007FFBD04FF075
S214400C3000621E4B1A63EA201B4B9847124A136900
S214400C4013F4007FFBD000220F4BDA601A4613697C
S214400C5013F4007FFBD000220B4BDA601A46136970
S214400C6013F4007FFBD04FF00062104B1A633A201B
S214400C700D4B9847044A136913F4007FFBD0552266
S214400C80014BDA601A4617E000800040410B4200F4
S214400C90005A6202E9144200150C4200B7C07300C5
S214400CA001004020000E0E409107400000140E4008
S214400CB0950B420084B70700136913F4007FFBD0FE
S214400CC04FF00062074B1A630020074B9847F0230B
S214400CD04FF4A07200210846044CA04704B0BDE87B
S214400CE0F08100BF00140E40890940000109400011
S214400CF070B582B0026BC36A1340019300241C4E49
S214400D001C4DA84214BF0020012005010BE00E2C0C
S214400D101ED8019A04F10C0101238B40134210D1D6
S214400D200134102C22D00B2CF1D8019A0123A34079
S214400D301342F5D02B1956F82330002BF0D09847A5
S214400D40EEE72B1956F82330002BE9D09847E7E713
S214400D50019A04F10F0101238B401342E0D02B1976
S214400D6056F82330002BDBD09847D9E702B070BD49
S214400D7084A043200040064030B4046E01238B40DC
S214400D8024EA03041578002D08BF00232343036696
S214400D90446D4B000321994024EA01045178994060
S214400DA02143416530BC704700220260084B4360D7
S214400DB0084B83604FF48023C360022303740123EF
S214400DC043748374C274037543758375704700BF5C
S214400DD000A3E111808D5B00002303700123437064
S214400DE070470000026B12F0807201D019207047E5
S214400DF010B401230360CB7C002B18BF4FF0004299
S214400E004B688C68B3FBF4F3013B1B029BB2CC6887
S214400E1044F4000423430C7C240604F0706423430B
S214400E204C7C240704F040542343134343600B7D1B
S214400E30002B14BF4FF0807300230A6813434A7D8B
S214400E40002A14BF4FF000720022134383608B7D4C
S214400E501B0203F4407343F00C03C0F894300F4B6E
S214400E60984206D00E4B98420DD000205DF8044BB9
S214400E7070470C4B03F14001002243F8042F8B428D
S214400E80FBD10020F2E7084B03F14001002243F873
S214400E90042B8B42FBD10020E8E700BF00C0034094
S214400EA00040064080A04320C4A0432008B5024826
S214400EB0024B984708BD00BF00C00340F10C4000FD
S214400EC008B50248024B984708BD00BF00400640A0
S214400ED0F10C400000B583B0134B98420CBF28205D
S214400EE01D20124B9847124B9B78FF2B1AD0EFF3DE
S214400EF01083B3FA83F35B09019372B6BFF35F8F37
S214400F0000220C4B1A700199094A9378013393706A
S214400F1029B10122074B1A70BFF35F8F62B603B048
S214400F205DF804FBFEE700BF00400640391442006F
S214400F307CA04320B400402000F1080343604FF0FB
S214400F40FF328260C3600361002303607047002362
S214400F500361704743684B609A688A609A6851603C
S214400F6099600861036801330360704730B40D68C8
S214400F70B5F1FF3F02D000F1080202E0026904E04A
S214400F801A4653681C68A542FAD253684B6099606B
S214400F908A605160086103680133036030BC704763
S214400FA003694268816891608268416851605A6806
S214400FB0904205D0002202611868013818607047D8
S214400FC082685A60F6E700000D4B1B68B3F1FF3F9E
S214400FD00AD04FF0800372B683F31188BFF36F8F49
S214400FE0BFF34F8F62B6FEE74FF0800372B683F3CF
S214400FF01188BFF36F8FBFF34F8F62B6FEE700BF17
S2144010000C00402006480068006880F3088862B6F6
S21440101061B6BFF34F8FBFF36F8F00DF00BF000096
S21440102008ED00E0DFF80C00016841F47001016053
S2144010307047000088ED00E04FF0807340F8043CB5
S21440104040F8081C054B40F80C3C40F8202C6FF04C
S214401050020340F8243C4438704700BFC90F4000A4
S214401060064B19680868B0E8F04F80F30988BFF36C
S2144010706F8F4FF0000080F311887047A4C2402065
S214401080704700BF4FF0800372B683F31188BFF3FA
S2144010906F8FBFF34F8F62B60B4A136801331360EE
S2144010A0012B0FD1094B1B6813F0FF0F0AD04FF0EE
S2144010B0800372B683F31188BFF36F8FBFF34F8FF1
S2144010C062B6FEE7704700BF0C00402004ED00E02B
S2144010D00A4B1B6853B94FF0800372B683F31188EE
S2144010E0BFF36F8FBFF34F8F62B6FEE7013B034AF5
S2144010F013600BB983F31188704700BF0C00402083
S214401100EFF30980BFF36F8F154B1A681EF0100F70
S21440111008BF20ED108A20E9F04F10604DF8043DDE
S2144011204FF0800072B680F31188BFF34F8FBFF345
S2144011306F8F62B601F076F94FF0000080F31188A9
S21440114008BC19680868B0E8F04F1EF0100F08BFDA
S214401150B0EC108A80F30988BFF36F8F704700BFEA
S214401160A4C24020704700BF08B5EFF311834FF08C
S214401170800272B682F31188BFF36F8FBFF34F8F32
S21440118062B6054B984718B14FF08052034B1A6031
S214401190002383F3118808BD9120400004ED00E051
S2144011A0034A044B1A600722043B1A60704700BF8C
S2144011B07FA9030014E000E000B583B0254B1A7801
S2144011C0D2B20192FF221A701B78DBB28DF8033040
S2144011D09DF8033003F080031F4A137007221F4B0D
S2144011E01A609DF8033013F0800F10D0062200E0FE
S2144011F00A469DF803305B00DBB28DF803309DF85D
S2144012000330511E13F0800FF2D1144B1A60134A6C
S21440121013681B0203F4E0631360019BDBB20D4AC4
S21440122013700F4B1A6842F460021A601A6842F054
S21440123060421A600B4B984700220B4B1A600B4BD0
S21440124098470B4A136843F040431360094B98474E
S214401250094B984700E400E0940A4020980A402052
S21440126020ED00E0A11140000C0040202510400079
S21440127034EF00E005104000C90F4000EFF305834F
S2144012800F2B11D9124A9B5CDBB2124A12789A4253
S2144012900AD94FF0800372B683F31188BFF36F8F7D
S2144012A0BFF34F8F62B6FEE70B4B1B6803F4E06359
S2144012B00A4A126893420AD94FF0800372B683F303
S2144012C01188BFF36F8FBFF34F8F62B6FEE770474C
S2144012D0F0E300E0940A40200CED00E0980A40203D
S2144012E038B5044610F0070F02D020F00704083443
S2144012F0114B9847114B1B6893B1114B1B681C440C
S214401300A34213D24BF2F77294420FD80B4A156899
S2144013101D440B4B1C600B4B98474DB1284638BDBF
S214401320094B23F00703054A1360E6E7054B984749
S214401330064B98470025F1E7752040009C0A402060
S214401340A0C24020DD214000A80A40200F1D4200D8
S21440135050B14FF0800372B683F31188BFF36F8F9E
S214401360BFF34F8F62B6FEE77047000038B50446BD
S2144013701546026C5AB90368002B2ED140681B4BA9
S214401380984700236360A36B0133A36338BD6DB9F0
S2144013908068174B9847A368226C1344A360626822
S2144013A093421CD32368A3600020ECE7C068104B30
S2144013B09847236C5B42E2681A44E26021688A429E
S2144013C002D262681344E360022D0AD1A36B53B184
S2144013D0A36B013BA3630020D5E70020D3E70020A2
S2144013E0D1E70020CFE70020CDE700BF252840000A
S2144013F00530420030B583B00190446D74B1A26BA5
S214401400E36B9A4215D34FF0800372B683F311888C
S214401410BFF36F8FBFF34F8F62B6FEE74FF0800388
S21440142072B683F31188BFF36F8FBFF34F8F62B6E8
S214401430FEE7A26B934203D80025284603B030BD92
S2144014400A4601A920460B4B98470546A36CB3F1C4
S214401450FF3F0AD1636A002BEFD004F12400064B0D
S2144014609847002818BF0125E7E7A36C0133A3641B
S214401470E3E700BF6D134000F9254000026C72B1EF
S21440148010B50346C4681444C4604068844201D31F
S2144014901868D8600846D968014B984710BD704711
S2144014A005304200F8B50446224B9847A36C002B03
S2144014B01BDD214D214F224E0BE0636AABB104F198
S2144014C02400B04778B9A36C013BA364A36C002BFF
S2144014D00BDD636D002BF0D000212046A847012885
S2144014E0F1D1B847EFE7B847EDE74FF0FF33A364D5
S2144014F0144B98470F4B9847636C002B14DD2369B9
S21440150093B104F110060E4D0C4F07E0636C013B9F
S2144015106364636C002B07DD23692BB13046A84714
S2144015200028F3D0B847F1E74FF0FF336364054B2C
S2144015309847F8BD85104000F513400055274000F9
S214401540F9254000D110400038B508B304460D4692
S2144015501D4B98472268216CE36B03FB01F3D018C0
S21440156060600020A063A2605B1A1344E3604FF003
S214401570FF336364A364FDB923692BB104F1100003
S214401580124B984701280ED0114B9847012038BD82
S2144015904FF0800372B683F31188BFF36F8FBFF3AB
S2144015A04F8F62B6FEE74FF080520A4B1A60BFF389
S2144015B04F8FBFF36F8FE7E704F11000064DA84743
S2144015C004F12400A847DFE785104000F9254000D5
S2144015D0D110400004ED00E0390F4000F8B550B996
S2144015E04FF0800372B683F31188BFF36F8FBFF35B
S2144015F04F8F62B6FEE7064617460D4689B101FB99
S21440160000F05930124B98470446E8B94FF0800333
S21440161072B683F31188BFF36F8FBFF34F8F62B6F6
S214401620FEE758200A4B984704460028EED0206034
S214401630E663256401212046064B984784F850709F
S214401640002363652046F8BD00F158030360EFE7CA
S214401650E1124000491540002DE9F04F85B0019257
S214401660B8B1044601B3022B2CD01D468846664BC3
S2144016709847002834D1019B002B38D04FF0800388
S21440168072B683F31188BFF36F8FBFF34F8F62B686
S214401690FEE74FF0800372B683F31188BFF36F8F77
S2144016A0BFF34F8F62B6FEE7026C002ADBD04FF0E6
S2144016B0800372B683F31188BFF36F8FBFF34F8FEB
S2144016C062B6FEE7E26B012ACFD04FF0800372B6D7
S2144016D083F31188BFF36F8FBFF34F8F62B6FEE779
S2144016E000274A4EDFF850A1DFF82C9142E0002751
S2144016F0F7E72A4641462046454B9847636D9BB1DF
S21440170029462046434B9847012807D14FF0805240
S214401710414B1A60BFF34F8FBFF36F8F3F4B9847D5
S214401720012005B0BDE8F08F636A73B104F1240070
S2144017303B4B98470128F1D14FF08052364B1A6008
S214401740BFF34F8FBFF36F8FE8E70028E6D04FF028
S2144017508052314B1A60BFF34F8FBFF36F8FDDE778
S2144017602E4B98470020DCE720462E4B98472E4BC2
S21440177098470127B047A26BE36B9A42B9D3022D34
S214401780B7D0019B002BEBD00FB902A8D047234B14
S2144017909847264B9847B047636CB3F1FF3F01D15B
S2144017A000236364A36CB3F1FF3F01D10023A3641D
S2144017B01A4B984701A902A81D4B9847E0B9B04775
S2144017C0D4F838B0E76B154B9847BB45CCD1019958
S2144017D004F11000174B98472046124B9847124B7F
S2144017E098470028C5D14FF08053C9F80030BFF362
S2144017F04F8FBFF36F8FBCE720460A4B98470A4B84
S214401800984700208DE700BF6127400085104000C4
S2144018106D134000F513400004ED00E0D110400089
S214401820F9254000A5144000DD2140007520400009
S214401830C1264000F524400091264000002836D0BE
S2144018402DE9F041044600293CD0022B48D01E46E4
S21440185015468846354B9847EFF311874FF080037F
S21440186072B683F31188BFF36F8FBFF34F8F62B6A4
S214401870A26BE36B9A4201D3022E4FD132464146C9
S21440188020462B4B9847A36CB3F1FF3F41D1636D85
S214401890002B33D031462046264B9847002D3FD06C
S2144018A001283DD1286087F31188BDE8F0814FF0CC
S2144018B0800372B683F31188BFF36F8FBFF34F8FE9
S2144018C062B6FEE7006C0028BFD04FF0800372B6C9
S2144018D083F31188BFF36F8FBFF34F8F62B6FEE777
S2144018E0E06B0128B3D04FF0800372B683F31188C3
S2144018F0BFF36F8FBFF34F8F62B6FEE7636A8BB15D
S21440190004F124000C4B984775B168B1012028605B
S214401910C9E7A36C0133A3640120C4E70020C2E7F3
S2144019200120C0E70120BEE70120BCE77D12400051
S2144019306D134000F5134000F925400070B170B5B6
S2144019400446036CABB14FF0800372B683F3118844
S214401950BFF36F8FBFF34F8F62B6FEE74FF0800343
S21440196072B683F31188BFF36F8FBFF34F8F62B6A3
S214401970FEE7036833B30D46254B9847EFF31186D1
S2144019804FF0800372B683F31188BFF36F8FBFF3B7
S2144019904F8F62B6A26BE36B9A4231D2A36B013390
S2144019A0A363A36CB3F1FF3F25D1636DC3B10021A0
S2144019B02046184B98472DB3012823D1286086F33C
S2144019C0118870BD4368002BD5D04FF0800372B6A7
S2144019D083F31188BFF36F8FBFF34F8F62B6FEE776
S2144019E0636A8BB104F124000B4B984775B168B11C
S2144019F001202860E3E7A36C0133A3640120DEE7FF
S214401A000020DCE70120DAE70120D8E70120D6E70E
S214401A107D124000F5134000F92540002DE9F047BF
S214401A2084B0019298B10446E1B198460F46614BA6
S214401A30984728BB019B53B34FF0800372B683F39D
S214401A401188BFF36F8FBFF34F8F62B6FEE74FF03C
S214401A50800372B683F31188BFF36F8FBFF34F8F47
S214401A6062B6FEE7026C002ADFD04FF0800372B603
S214401A7083F31188BFF36F8FBFF34F8F62B6FEE7D5
S214401A8000264D4DDFF860A1DFF83C914BE0002684
S214401A90F7E7E56839462046484B9847B8F1000FC7
S214401AA01DD1A36B013BA363236813B9444B9847EE
S214401AB0606023696BB104F11000424B98470128DF
S214401AC007D14FF08052404B1A60BFF34F8FBFF3A1
S214401AD06F8F3E4B9847012004B0BDE8F087E56025
S214401AE0636A002BF5D004F12400364B9847002853
S214401AF0EFD04FF08052344B1A60BFF34F8FBFF396
S214401B006F8FE6E7314B98470020E5E7A8476068C7
S214401B102F4B98472D4B984730E020462D4B984703
S214401B202D4B98470126A847A36B002BB1D1019BAC
S214401B30002BE7D00EB902A8D047244B9847274B36
S214401B409847A847636CB3F1FF3F01D10023636415
S214401B50A36CB3F1FF3F01D10023A3641B4B98470E
S214401B6001A902A81E4B9847E8B9A847A66B174B91
S214401B709847002ED1D12368002BC7D0019904F195
S214401B802400184B98472046124B9847124B9847CC
S214401B900028C7D14FF08053C9F80030BFF34F8FAD
S214401BA0BFF36F8FBEE720460A4B98470A4B9847CD
S214401BB0002091E761274000851040007D144000DA
S214401BC0E1284000F925400004ED00E0D110400037
S214401BD081274000A5144000DD21400075204000CC
S214401BE0C1264000F524400091264000F8B5002864
S214401BF02DD00446002935D015460E46264B98472C
S214401C00EFF311874FF0800372B683F31188BFF36A
S214401C106F8FBFF34F8F62B6A36B002B35D0314624
S214401C2020461E4B9847A36B013BA363636CB3F1FE
S214401C30FF3F25D1236953B304F11000184B984752
S214401C403DB330B30120286087F31188F8BD4FF0CC
S214401C50800372B683F31188BFF36F8FBFF34F8F45
S214401C6062B6FEE7036C002BC6D04FF0800372B618
S214401C7083F31188BFF36F8FBFF34F8F62B6FEE7D3
S214401C80636C013363640120DEE70020DCE701205B
S214401C90DAE70120D8E700BF7D1240007D144000FF
S214401CA0F925400010B40B4B1B6853B10123094C77
S214401CB054F8332032B10133082BF9D15DF8044B88
S214401CC070470023034A42F8331002EBC3035860C0
S214401CD0F4E700BF04A1432070B504460D461646FF
S214401CE00F4B9847636CB3F1FF3F0BD0A36CB3F137
S214401CF0FF3F0AD00B4B9847A36B4BB120460A4B8D
S214401D00984770BD00236364F0E70023A364F1E7BF
S214401D103246294604F12400044B9847EEE700BFBC
S214401D2085104000D1104000A514400079254000A1
S214401D30084B1B681B683BB1064B1B68DB68DB68BF
S214401D405A68054B1A6070474FF0FF32024B1A60D4
S214401D50704700BFA8C2402054C3402010B50F4B68
S214401D601B6858600E4B1B6898420ED304460D4BBA
S214401D7018680A4B196804310B4B98470B4B1B6885
S214401D809C4201D2094B1C6010BD094B1868034B9E
S214401D9019680431044B984710BD00BFA4C24020C8
S214401DA09CC34020A8C240206D0F400054C3402032
S214401DB0ACC240202DE9F04F83B00C9DDDF834A036
S214401DC00E9E60B1042D15D94FF0800372B683F392
S214401DD01188BFF36F8FBFF34F8F62B6FEE74FF0A9
S214401DE0800372B683F31188BFF36F8FBFF34F8FB4
S214401DF062B6FEE70190984691460F4636B9900087
S214401E00624B98470646002800F09E8058205F4B5D
S214401E1098470446002800F0948006634FEA8902FB
S214401E20A52130465A4B98476FF040464E44236BA8
S214401E3003EB860323F007063B7884F834303B7880
S214401E40002B40F08480002784F83D70E562A5644E
S214401E50E76404F104094846DFF884B1D84704F142
S214401E601800D8472461C5F10503A361646227655D
S214401E7084F85470424601993046464B9847206055
S214401E80BAF1000F01D0CAF80040434B9847434A86
S214401E90136801331360424B1B68002B66D1404BDE
S214401EA01C601368012B21D13E4F38463E4EB0474A
S214401EB007F11400B04707F12800B04707F13C008F
S214401EC0B04707F15000B047DFF818814046B047AA
S214401ED0364F3846B0473648B0473648B04736485B
S214401EE0B047364BC3F80080354B1F60354A136801
S214401EF0013313602364E06A334A11680123834048
S214401F000B43136000EB80004946264B03EB8000F2
S214401F102E4B98472E4B98472E4B1B68002B31D0A4
S214401F201F4B1B68DB6A9D422ED94FF080522A4BCE
S214401F301A60BFF34F8FBFF36F8F012003B0BDE829
S214401F40F08F3046254B98474FF0FF30F6E73B463C
S214401F5004F134020937597802F8011F13F8011FBB
S214401F6000293FF470AFBB42F5D16CE7194B1B68B4
S214401F70002BBBD10A4B1B68DB6A9D42B6D3084B8D
S214401F801C60B3E70120D9E70120D7E7E112400003
S214401F9039314200391040008510400014C34020BB
S214401FA0A4C24020B0C24020390F400040C3402069
S214401FB05CC3402088C3402074C34020A8C2402051
S214401FC0ACC2402020C3402028C34020550F4000CC
S214401FD0D110400070C3402004ED00E05113400093
S214401FE04F0F40002CC3402010B584B0002303930D
S214401FF0029301930093822216491748174CA04734
S21440200001280BD020BB4FF0800372B683F31188B3
S214402010BFF36F8FBFF34F8F62B6FEE7104B984704
S2144020200128EFD14FF0800372B683F31188BFF3D7
S2144020306F8FBFF34F8F62B64FF0FF32094B1A6077
S2144020400122094B1A600022084B1A60084B984739
S21440205004B010BD485A42008D234000B51D4000D4
S214402060CD29400054C3402070C340209CC340202C
S214402070B9114000024A136801331360704700BF2D
S2144020801CC34020014B1868704700BF9CC34020CB
S2144020902DE9F047424B1B68002B78D1414B1A681C
S2144020A001321A601E68D6B93F4B1B681B6853B195
S2144020B04FF0800372B683F31188BFF36F8FBFF380
S2144020C04F8F62B6FEE7384A1168384B1868106082
S2144020D01960374A136801331360364B9847364BBE
S2144020E01B689E4218D20024344B1B68DB6A03EB05
S2144020F08303334A52F82330022B28BF0124314B46
S2144021001B680BB9304B9847304B1B68002B0CBFF5
S21440211020460120BDE8F0870024DFF88C90DFF8E9
S214402120B8802B4F1FE04FF0FF32234B1A60DBE79F
S214402130214A1360D8E705F11800C047E86A3A68B4
S2144021400123834013433B6000EB800051461C4B09
S21440215003EB80001F4B9847184B1B68EA6ADB6A04
S2144021609A4228BF0124D9F800301B68002BDAD0E9
S214402170D9F80030DB68DD686B689E42D8D305F13D
S214402180040A5046C047AB6A002BD4D1D6E70D4A66
S2144021901368013313600C4B98470024B4E700BF24
S2144021A01CC340209CC34020A8C24020ACC2402054
S2144021B058C34020311D400054C34020A4C2402094
S2144021C0B0C2402018C340200D1D4200A0C340208E
S2144021D028C34020550F4000A10F40002DE9F8438A
S2144021E0384B1B6853B94FF0800372B683F311889F
S2144021F0BFF36F8FBFF34F8F62B6FEE7324B984701
S214402200304B1A68013A1A601B68002B55D12F4B89
S2144022101B68002B32D100242D4B98472046BDE842
S214402220F883FB68DC6804F11800B04704F1040842
S2144022304046B047E06A2A680123834013432B6038
S21440224000EB8000414609EB8000224B9847224B2A
S2144022501B68E26ADB6A9A420CD23B68002BE0D1EC
S2144022601E4B1B68DBB11D4B1B68C3B11C4E1D4D7E
S2144022701A4C0EE001221B4B1A60EEE71A4F1B4E1B
S2144022801B4DDFF87490E8E72368013B2360236822
S2144022902BB1B0470028F7D001232B60F4E7114B51
S2144022A01B68012B0BD14FF08052124B1A60BFF3C4
S2144022B04F8FBFF36F8F0124AEE70024ACE70024B6
S2144022C0AAE700BF1CC340208510400014C340202E
S2144022D0D1104000550F4000A4C2402018C34020F3
S2144022E091204000A0C340205CC34020A10F400086
S2144022F028C3402004ED00E0B0C2402010B50028BE
S21440230029D00446184B1B6853B14FF0800372B671
S21440231083F31188BFF36F8FBFF34F8F62B6FEE72C
S214402320124B9847124B1B681C44124B18680430DB
S214402330114B984748B90F4B1A6810490B68D06A3A
S2144023400122824023EA02030B6020460C4B98474A
S2144023500C4B984738B94FF080520B4B1A60BFF37E
S2144023604F8FBFF36F8F10BD1CC3402075204000B9
S2144023709CC34020A4C24020A10F400028C3402058
S2144023805D1D4000DD21400004ED00E080B5DFF833
S2144023908880194EDFF884902AE0184B1B68012B82
S2144023A01ED82B68002BF8D0C0473468B847002C9E
S2144023B0F7D0134B9847F368DC68201D114B9847BD
S2144023C0114A1368013B13602B68013B2B600F4B8F
S2144023D09847206BDFF848A0D0472046D047E0E734
S2144023E04FF08053C9F80030BFF34F8FBFF36F8F65
S2144023F0074D084FD5E700BF88C34020B0C24020F5
S21440240085104000A10F400014C34020D11040006A
S21440241024C34020DD2140007520400004ED00E04C
S214402420511340002D4B1B68002B2CD110B50022B9
S2144024302B4B1A602B4B1B681B6B1A68B2F1A53FDF
S21440244003D15A68B2F1A53F21D0264B18681968C7
S2144024503431254B9847254B1B68B3FA83F3DBB2E0
S214402460C3F11F0303EB8301214A52F82120BAB976
S2144024704FF0800372B683F31188BFF36F8FBFF3BC
S2144024804F8F62B6FEE70122154B1A6070479A6876
S214402490B2F1A53FD9D1DB68B3F1A53FD5D1DAE794
S2144024A0134A9900C81802EB800044686468446088
S2144024B0194402460832944209D003EB83030C4A7F
S2144024C002EB83035B68DA68064B1A6010BD6068EF
S2144024D0074A02EB81025060EFE700BF1CC3402072
S2144024E0A0C34020A4C24020F51C420028C3402080
S2144024F0B0C2402038B5E0B10C46174D29681831B7
S214402500164B984728680430154B984740B92A68B8
S21440251014490B68D06A0122824023EA02030B600A
S214402520B4F1FF3F10D0104B186820440F4B98472B
S21440253038BD4FF0800372B683F31188BFF36F8FB8
S214402540BFF34F8F62B6FEE7034B19680431084865
S214402550084B984738BD00BFA4C240206D0F4000CE
S214402560A10F400028C340209CC340205D1D400072
S21440257074C34020550F4000E8B170B515460C4670
S214402580164E31681831164B984730680430154B54
S214402590984740B9326814490B68D06A0122824095
S2144025A023EA02030B60012D10D0104B186820441C
S2144025B00F4B984770BD4FF0800372B683F3118877
S2144025C0BFF36F8FBFF34F8F62B6FEE7034B1968BA
S2144025D004310848024B984770BD00BFA4C2402053
S2144025E0550F4000A10F400028C340209CC3402008
S2144025F05D1D400074C3402038B5C368DC6824B312
S21440260004F1180528461A4B98471A4B1B683BBBE3
S214402610251D2846164B9847E06A174A116801233D
S21440262083400B43136000EB80002946134B03EBBB
S2144026308000134B9847134B1B68E26ADB6A9A424A
S21440264013D90120104B186038BD4FF0800372B686
S21440265083F31188BFF36F8FBFF34F8F62B6FEE7E9
S21440266029460A48064B9847E5E7002038BD00BF94
S214402670A10F40001CC3402028C34020B0C24020C9
S214402680550F4000A4C24020A0C340205CC3402059
S21440269030B1094A12680260084A126842607047C0
S2144026A04FF0800372B683F31188BFF36F8FBFF38A
S2144026B04F8F62B6FEE700BF58C340209CC3402001
S2144026C038B5C0B1044609B30D461D4B98471D4B5F
S2144026D01A682B68B3F1FF3F2ED01B490968206863
S2144026E0884202D061688A4228D26168501A834282
S2144026F017D801241CE04FF0800372B683F311888C
S214402700BFF36F8FBFF34F8F62B6FEE74FF0800385
S21440271072B683F31188BFF36F8FBFF34F8F62B6E5
S214402720FEE79B1A0B442B602046084B9847002434
S214402730074B9847204638BD0024F9E70124F7E7C1
S214402740851040009CC3402058C34020912640003E
S214402750D11040000122014B1A607047A0C34020B0
S214402760054B1B6833B1054B1B68002B0CBF022082
S214402770002070470120704770C340201CC3402093
S214402780002844D038B50446C26A21490968C96A57
S2144027908A4214D28169002905DB1D490968C96A45
S2144027A0C1F10501816102EB82021A4901EB820206
S2144027B06169914204D0164A1268D26AE26238BD14
S2144027C0251D2846144B984770B9E36A03EB8301EE
S2144027D0104A52F821203AB910480268012101FAFD
S2144027E003F322EA03030360094B1B68D86AE062DE
S2144027F00A4A1168012383400B43136000EB8000B4
S2144028002946044B03EB8000054B984738BD70477C
S214402810A4C24020B0C24020A10F400028C34020A0
S214402820550F400000284DD038B50446274A126858
S21440283090420AD04FF0800372B683F31188BFF3FC
S2144028406F8FBFF34F8F62B6FEE7C26C52B94FF040
S214402850800372B683F31188BFF36F8FBFF34F8F39
S21440286062B6FEE7013AC264C06AA16C88422BD0C9
S21440287052BB251D2846164B984768B9E16A01EBBE
S2144028808102144B53F8223033B9134803680122AF
S2144028908A4023EA02030360A06CE062C0F10503AD
S2144028A0A3610D4A1168012404FA00F30B43136038
S2144028B000EB80002946074B03EB8000074B984708
S2144028C0204638BD00207047002038BDA4C24020B6
S2144028D0A10F4000B0C2402028C34020550F400002
S2144028E0054B1B6823B1044B1A68D36C0133D36481
S2144028F0014B1868704700BFA4C2402008B541602D
S214402900006191420CD8D21A83699A4201D30120C1
S21440291008BD011D094B1868094B9847002008BDA3
S2144029209A4203D2994201D3012008BD011D054BAE
S2144029301868034B9847002008BD00BFA8C3402036
S2144029406D0F4000A4C3402070B5154B9847154BFB
S2144029501B6813B1144B984770BD144D2846144E4F
S214402960B047144C2046B047134B1D60134B1C60B9
S214402970002210210520124B98470A4B186018B1C8
S2144029801049114B9847E5E74FF0800372B683F342
S2144029901188BFF36F8FBFF34F8F62B6FEE700BF5D
S2144029A085104000D8C34020D1104000ACC3402022
S2144029B0390F4000C0C34020A4C34020A8C34020D5
S2144029C0DD154000505A4200A51C400010B584B0AA
S2144029D00F4B98470F4B1B6873B10023039302932A
S2144029E00193042200924FF482720B490B480C4C20
S2144029F0A04708B104B010BD4FF0800372B683F311
S214402A001188BFF36F8FBFF34F8F62B6FEE700BFEC
S214402A1049294000D8C34020585A4200A52B4000C0
S214402A20B51D4000C9B12DE9F0410F461D4616467A
S214402A3080462C200E4B9847044658B10D4B98477D
S214402A40C4F80080A761E6612562069B6362201D8C
S214402A50094B98472046BDE8F0814FF0800372B698
S214402A6083F31188BFF36F8FBFF34F8F62B6FEE7D5
S214402A70E1124000492940004F0F4000D8B130B520
S214402A8085B015460446154A106820B31A4600918C
S214402A9001950294052919DC114B984702284FF0FE
S214402AA000030CBF089A1A4669460C4800680D4C4D
S214402AB0A04705B030BD4FF0800372B683F311884F
S214402AC0BFF36F8FBFF34F8F62B6FEE700236946B2
S214402AD0054CA047EDE70020EBE700BFD8C34020F9
S214402AE061274000591640003D1840002DE9F04748
S214402AF082B08046244B98470746244B1B68984232
S214402B001BD30023C8F80030204B1F60384602B065
S214402B10BDE8F087002100910B46524620461C4CEB
S214402B20A04760B94FF0800372B683F31188BFF3B5
S214402B306F8FBFF34F8F62B6FEE7164D164E2B686B
S214402B401A68C2B1DB68D3F800A0DC6804F1040957
S214402B504846B047636A20469847E369012BEED162
S214402B60A36953449A45D5D2636024614946286890
S214402B700A4B9847E3E70A4A10680649086013601C
S214402B800123C8F80030BFE785204000D4C340206A
S214402B907D2A4000A4C34020A10F40006D0F400096
S214402BA0A8C340202DE9F04788B0754E754FDFF832
S214402BB0FC91DFF8FC8133681A68002A00F0CE806A
S214402BC0DB681C68B84704A86F4B98470546049BCB
S214402BD0002B44D1A04212D20022611B6B4B1868D6
S214402BE06B4B98476B4B984700283AD14FF0805331
S214402BF0C9F80030BFF34F8FBFF36F8F31E0654B9E
S214402C0098473368DB68D3F80CA00AF10400C04745
S214402C10DAF81C30012B04D0DAF8243050469847B6
S214402C201FE0DAF8181023462A46214450465A4DEB
S214402C30A8470128F0D1002100910B462246504675
S214402C40564CA0470028E7D14FF0800372B683F376
S214402C501188BFF36F8FBFF34F8F62B6FEE74D4BC1
S214402C6098474A4D4E4C06E007990698059B98476C
S214402C70049B002B09DA00231A4604A92868A047BB
S214402C80002898D0049B002BEEDBDDF818A0DAF87D
S214402C90143013B10AF10400C04703A83A4B9847D2
S214402CA0049B092BE7D801A252F823F0D52C40000C
S214402CB0D52C4000D52C4000772C4000292D4000D4
S214402CC0552D4000D52C4000D52C4000772C400098
S214402CD0292D4000059CDAF8181023460246214468
S214402CE050462D4CA0470128BCD1DAF82430504637
S214402CF09847DAF81C30012BB4D1DAF818200021B6
S214402D0000910B46059802445046244CA0470028A4
S214402D10A8D14FF0800372B683F31188BFF36F8F4C
S214402D20BFF34F8F62B6FEE70599CAF8181031B167
S214402D300346024601445046174CA04792E74FF0E0
S214402D40800372B683F31188BFF36F8FBFF34F8F44
S214402D5062B6FEE75046134B984783E7B84704A849
S214402D60094B98470546049B002B7FF478AF0E4BE3
S214402D701B681A68B2FA82F2520900242DE700BF97
S214402D80A4C3402075204000ED2A4000D8C3402010
S214402D90D91C4000DD214000FD2840007D2A40002F
S214402DA01D1A400051134000A8C3402004ED00E027
S214402DB0A10F400008B5034608B1586C08BD034B48
S214402DC0984703460028F8D1002008BDA14041009E
S214402DD008B5034608B1986C08BD034B98470346B0
S214402DE00028F8D1002008BDA140410008B50346A0
S214402DF008B1186D08BD034B984703460028F8D124
S214402E00002008BDA140410008B5034608B1586DF2
S214402E1008BD034B984703460028F8D1002008BD5C
S214402E20A1404100A0B138B503460024094D93F8AF
S214402E30342002F02002002A18BF1C461846A84735
S214402E4003460028F3D114B12046034B984738BDBB
S214402E50704700BFA54F4000DD5540002DE9F84FB4
S214402E60037D13F0010F31D117468B460646C468E2
S214402E704FF001090025DFF8D480DFF8D4A03CB33A
S214402E80002D08BF254621463046B8470446A8428E
S214402E901CD0002CF3D000212068C04710F0200F33
S214402EA0EDD12068D0470028E9D1F368A3420DD081
S214402EB013B31868C369002217219847F3680022A5
S214402EC00E2118681E4B9847012811D0BDE8F88F90
S214402ED0337D13F0100F01D1002DF7D1B9F1000F5B
S214402EE0F4D03046D84704461DB34FF00009D0E72B
S214402EF0F3681868134B9847F4602068C36900224B
S214402F0016219847F36800220D2118680C4B984705
S214402F100128DBD1F36818680B4B9847F3681868AC
S214402F20084B98473369002BD0D030469847BDE8C9
S214402F30F88F0028CAD005464FF00009ABE700BF1F
S214402F40954E400065554000252E40007963400070
S214402F50D553400008B518210148024B984708BD94
S214402F60B4A243204353410008B5024A0249034BEA
S214402F70984708BD01544100ED5341005D2E400086
S214402F8008B5024A0249034B984708BD0F54410012
S214402F90F75341005D2E400038B50446037DC3F329
S214402FA0001543F01003037513F0080F0CBF044BD5
S214402FB0044B9847237D65F30413237538BD00BF43
S214402FC0692F4000812F4000002836D0F8B50546CE
S214402FD00C460746194B9847014658B103689C4231
S214402FE007D0174E3846B047014618B10B68A34283
S214402FF0F8D1F8BDA36B33B12046124B984710B1B9
S214403000A06B114B9847A5632846104B9847064639
S2144030100F4B984758B1002EEBD034602846074BEC
S21440302098478642E5D12846074B9847E1E732461F
S2144030300023084808498847FEE77047ED5341009B
S2144030400154410071744000992F4000A153410043
S214403050EF504100605A4200F95041002DE9F041DE
S214403060D0F83880B8F1000F4FD00546D8F80C306D
S2144030701B6898421ED046464046254B9847044615
S214403080002842D003689D4209D0224F2146304650
S214403090B8470446002838D023689D42F6D12146DA
S2144030A040461D4B984720461C4B98470023AB6331
S2144030B0BDE8F08198F8143013F0010F05D098F869
S2144030C014306FF3000388F814304046104B98478E
S2144030D0D8F80C3083420BD04046114B9847D8F86E
S2144030E00C301B689D42C6D10023C8F80C30C2E79E
S2144030F040460C4B9847D8F80C309842ECD10068C4
S214403100C369002217219847E9E7BDE8F08100BF70
S214403110ED53410001544100A5544100B9584100C7
S214403120992F4000F753410018B1C3681BB1186887
S21440313070470020704700207047000010B582B0EE
S21440314001910A4B984770B10446C36901AA1821F9
S2144031509847012801D002B010BD01AA0C21204694
S214403160034B9847F7E70120F5E700BF29314000B9
S214403170954E4000F8B138B50446037DC3F340038E
S2144031808B4213D0037D61F3410303750A4B984786
S214403190054658B1C369002216219847E3680022C5
S2144031A00D211868054B9847012800D038BD2846A1
S2144031B0034B9847FAE7704729314000954E400048
S2144031C065554000002861D02DE9F0410546D0F80D
S2144031D03880B8F1000F31D098F8143013F0010F52
S2144031E02CD1D8F80C3013B11B68984226D0002159
S2144031F04046274B984746464046264B9847044607
S214403200E0B103689D4208D0234F21463046B84778
S214403210044698B123689D42F7D1D8F80C30A3B144
S2144032201868C369002217219847D8F80C30002246
S2144032300E211868194B9847012801D0BDE8F08147
S214403240D8F80C301868164B9847C8F80C402068D9
S214403250C369002216219847D8F810300BB1404673
S2144032609847D8F80C3000220D2118680B4B984729
S2144032700128E3D1D8F80C301868094B9847D8F89D
S2144032800C301868074B9847BDE8F081704700BF80
S21440329075314000ED53410001544100954E4000C9
S2144032A065554000252E400018B1007DC0F3400013
S2144032B0704700207047000090F8503013F0020F1F
S2144032C022D010B400234363836390F8461090F8EE
S2144032D050208364C3648385C38501F0FC010324C6
S2144032E064F3840180F8461003864386A0F8423093
S2144032F0A0F8443002F0FE0263F3410280F850200A
S214403300024A13605DF8044B704700BFE0C340209C
S21440331090F8340010F0020002D00022024B1A60EF
S214403320003018BF01207047E0C3402070B5044607
S21440333048B1064D064E2046A84724B118B120464F
S214403340B0470446F7E7204670BD00BF595D4000D1
S214403350A54F400090F82A3013F0020F00D1704776
S214403360F0B585B00446C069634B9847054690B1B2
S214403370624B9847B8B994F82A306FF3410384F803
S2144033802A30EB695E4A1268132128469847204641
S2144033905C4B984708B105B0F0BD0022092128468D
S2144033A0594B9847F7E72846584B98470646544B9C
S2144033B01A68517DC1F16403B4F9141001FB03F19E
S2144033C0534880FB0173C917C1EB6311A182537D3B
S2144033D0C3F16401B4F9163003FB01F380FB03101C
S2144033E0DB17C3EB6013E3826369002B6AD0694640
S2144033F02846484B98472846474B9847A38A184440
S21440340007B22846454B9847E28A024412B2032E3A
S2144034103CD0012E3FD0022E42D0042E45D002A9E9
S21440342028463C4B9847BDF90020BDF908309A42E3
S21440343003D0B4F91430002BADD1BDF90220BDF94C
S2144034400A309A4203D0B4F91630002BA3D194F830
S2144034502A306FF3410384F82A300023A381E381A6
S214403460A382E382EB69264A1268132128469847CE
S2144034702046244B984700288DD100220921284613
S214403480214B984720461F4B984784E739462846A5
S214403490234B9847C3E739462846224B9847BEE712
S2144034A011462846204B9847B9E7B4F9103023B167
S2144034B0394628461B4B9847B1E7114628461A4BD3
S2144034C09847ACE794F82A306FF3410384F82A30E3
S2144034D0EB6913212846984720460A4B9847002810
S2144034E07FF459AF002209212846074B98472046CB
S2144034F0044B98474FE700BF2D3340002D5D4000FA
S214403500DCC3402011334000954E4000015D400032
S2144035101F85EB51D15040000D5140004D514000A9
S21440352045564000FD5640003D57400038B590F89F
S214403530343013F0080F0DD000238361C361C3629B
S214403540036390F8342063F3C30280F834205B4A68
S214403550136038BD04468069584B1860002800F058
S21440356081801021564B9847002836D0534B186818
S214403570C369544A12680E2198472046524B9847D2
S214403580002876D194F82A3013F0020F1AD194F816
S214403590343013F0010F0AD100220321474B18683C
S2144035A04A4B98472046484B9847002861D100220E
S2144035B00621424B1868454B98472046424B984751
S2144035C0002856D1002207213C4B18683F4B9847AD
S2144035D020463D4B984700B338BD384B1868C36902
S2144035E0384A12680E2198472046374B984700289D
S2144035F03FD194F8343013F0010F46D194F82A3076
S21440360013F0020F36D0002207212C4B18682F4BA0
S214403610984720462C4B984758BB284B18682C4B4D
S21440362098470546D0B12B4B9847B8B194F82A3006
S21440363013F0020F12D0EB691BB10022122128466C
S21440364098472046204B984798B900220A2128469A
S2144036501E4B984720461C4B984750B90023A36101
S214403660E3622363E36923B194F8343013F0020F26
S2144036701CD038BD00220321104B1868134B9847C6
S2144036802046114B98470028F3D194F82A3013F07F
S214403690020FB8D100220621084B18680B4B9847FA
S2144036A02046094B98470028ADD0E2E720460A4B13
S2144036B098472046044B9847DBE700BFE0C34020CE
S2144036C045634000DCC3402011334000954E400027
S2144036D02D3340002D5D400055334000014B1868A7
S2144036E0704700BFDCC3402008B100787047002018
S2144036F070470000F8B5B0B1034690F8502042F04D
S214403700020280F850201A4A1268904204D039B11A
S214403710DA6B914204D0F8BD0020164A1060F6E7F6
S2144037200022DA63F8BD0C460020134B9847034648
S2144037300028F0D00E4E0F4F0F4D09E000223A60A1
S2144037400FE00022DA631846A84703460028E2D076
S21440375093F8502042F0020283F8502032689A4292
S214403760ECD0002CEDD0DA6B9442ECD1E9E700BF08
S214403770DCC34020E0C340200944410008B5002196
S2144037800846014B984708BDF536400038B5044614
S21440379090F850306FF3000380F85030024DA84741
S2144037A0E064A847A06438BD9544410058B103780A
S2144037B003F0FD03012B0AD1B0F920300B80B0F99D
S2144037C022304B80704700230B804B8070474FF66B
S2144037D0FF730B804B80704748B1037803F0FD03BE
S2144037E0012B06D190F84600C0F3400070470020F9
S2144037F07047002070470000014B1868704700BFB4
S214403800E0C340202DE9F04180460E46284B9847BD
S214403810002846D008F104052846264B984704461B
S21440382068B1254F31462046FFF7ECFF0346002897
S21440383038D121462846B84704460028F2D14046AB
S2144038401E4B9847002830D0B8F1000F0AD04446A7
S2144038501B4D1C4E2046A84758B92046B047044644
S2144038600028F7D140214046174B984748B1434679
S21440387018E040214046144B984768B90CB10023E5
S21440388010E000214046114B984700F020000028E9
S2144038900CBF4346002305E0002C0CBF43460023E4
S2144038A000E000231846BDE8F0810023FAE700BF99
S2144038B0ED744000ED53410001544100A95C4000C6
S2144038C0D5534000A54F4000456340007963400013
S2144038D083698D4A136090F8342012F0080F40F048
S2144038E054842DE9F04F83B00446884A1268D56860
S2144038F0002B00F0A88090F82A2012F0020F00F06B
S214403900BE80A0882389C01A00B2A081E18863895E
S214403910C91A09B2E181B4F9143003EB8303DA1013
S21440392016B2A682B4F9163003EB8303DB101DB241
S214403930E582002EC0F2FB81002E01DD013AA28214
S214403940002DC0F2F781002D01DD013BE382A38A02
S21440395003EB6000A082E38A03EB6101E1826A4BDD
S2144039601868002800F0B980C369684A12680C21BC
S21440397098472046664B9847002840F0AE80002285
S2144039800121614B1868634B98472046604B984727
S2144039900546002840F0A1805C4B1B6893F85030E9
S2144039A013F0080F40F09980A0695B4B9847064695
S2144039B028B15A4B98478046002840F0D78194F863
S2144039C02A3013F0200F0DD1A5695DB1544E554FE6
S2144039D02846B047002800F029832846B8470546C1
S2144039E00028F5D120464A4B9847002875D194F8D0
S2144039F02A3013F0020F70D194F8343013F0010FD0
S214403A0000F06F83206B484B9847404B1A68538BA7
S214403A10984262D93C4B1868C369102198472046A3
S214403A203B4B9847002858D100220521364B186852
S214403A30384B98472046364B984700284DD13B4B4D
S214403A409847206349E02846394B9847261D31461B
S214403A50384B98472C4B186000BB2846364B984747
S214403A603146344B9847284B1860B8B92846334BF4
S214403A70984731462F4B9847234B18600EE010214D
S214403A8018462F4B984788B92846294B9847261DF5
S214403A903146284B98471C4B186008B3E3692BB156
S214403AA00023A382E3822046264B9847A569164BFF
S214403AB01B689D423FF425AFA3882381E38863813A
S214403AC0002D4BD0EB69114A12680D2128469847C5
S214403AD020460F4B9847002836D003B0BDE8F08FFD
S214403AE02846154B98473146124B9847064B186068
S214403AF00028D3D12846114B984731460D4B98475E
S214403B00014B1860CAE700BFE0C34020DCC340203A
S214403B1011334000954E40002D334000D55C4000A8
S214403B20635D4000A54F4000B144410095444100CC
S214403B30092E400005384000ED2D4000B52D4000D0
S214403B4045634000553340000022022128467B4B07
S214403B50984720467A4B98470028BED1794B1B6839
S214403B60A361E361002B3FF4CCAE774B9847E0620D
S214403B7094F834306FF3000384F8343094F82A20F5
S214403B8000232382638202F0FC02032161F3840255
S214403B9063F3451284F82A20E3842385A381E381D6
S214403BA0684B1B6883B10025684E93F8342012F0AA
S214403BB0200F18BF1D461846B04703460028F4D1CC
S214403BC015B12846624B98475E4B1868C369614AF0
S214403BD012680B2198472046594B984700287FF497
S214403BE07CAF00221146574B1868544B98472046E6
S214403BF0534B984700287FF470AF564B1D6895F896
S214403C00503013F0080F7FF468AF4E4F3868524B71
S214403C109847064620213868504B9847F8B9EB6BD2
S214403C209E421CD005F11C0730464D4B98478046B7
S214403C30E86B002800F08B82494B9847804515D0AA
S214403C40002800F08882E86B00284ED0002215211C
S214403C50444B984738463A4B984700283BD0204636
S214403C60374B984700283FF44CAE36E7B8F1000F84
S214403C7008D030463C4B98473846314B984700284A
S214403C803ED0ECE7E86B90B100221721354B9847C1
S214403C9038462B4B98470028E1D100220E21E86B8E
S214403CA0264B98473846264B98470028D7D10022BF
S214403CB0162130462B4B98473846214B98470028CC
S214403CC0CDD100220D2130461C4B984738461C4B20
S214403CD09847A8B1C3E700220F21E86B174B9847D7
S214403CE03846174B98470028B9D1B8F1000F09D08D
S214403CF030461D4B98473846114B98470028AED162
S214403D00EE63ACE7002216213046164B98473846FD
S214403D100B4B98470028A2D100220D213046074B76
S214403D2098473846064B98470028E9D097E701322F
S214403D30A28205E60133E38209E600BF954E4000C5
S214403D4011334000E0C3402095444100A54F400059
S214403D50DD554000DCC34020B1884000456340004C
S214403D60A9724000FD4E4000C53140003046A34B8E
S214403D709847074694F82A3013F0010F34D1228A28
S214403D80A3891A4412B22282638AE1890B441BB289
S214403D90638200F0FD00B91EC9B201298CBF002124
S214403DA00121042F69D0012807D1002AB8BF52420A
S214403DB093480068007D82420BDA00293FF4FFAD4D
S214403DC0002BB8BF5B428E4A1268127D9342FFF6C4
S214403DD0F6AD94F82A3043F0010384F82A3013F005
S214403DE0010F3FF4ECAD4546E368002B3FF4E7ADEA
S214403DF0B6F910A0B6F912B03046DFF82C82C047AC
S214403E00804B984700903046C0477F4B984701907C
S214403E1030467E4B9847804630467D4B9847814695
S214403E20032F36D0012F7BD0022F00F08980042F3D
S214403E301BD1D5B1B4F91020B4F9123082EAE27041
S214403E40A0EBE27083EAE371A1EBE371884240F3B2
S214403E50868094F82A30012161F3840384F82A305E
S214403E600023638290440FFA88F8042F00F0848081
S214403E70BB1EDBB2012B26D896E082EAE275A5EBA4
S214403E80E27583EAE370A0EBE37085428DDC414641
S214403E9093E775B194F82A30032262F3840384F8DA
S214403EA02A30238A98440FFA88F8638A99440FFA8E
S214403EB089F9A38998440FFA88F8BB1EDBB2012B18
S214403EC072D9042F64D04E4B1B68D868514B984724
S214403ED007464A46414630464F4B984794F82A3064
S214403EE043F0020384F82A30B6F91030534560D0C8
S214403EF0002D3FF464ADF369414A12681121304603
S214403F0098472046454B984700287FF458AD0022F6
S214403F1008213046424B98472046404B98474EE54E
S214403F20002DC6D094F82A30012262F3840384F828
S214403F302A3000236382238A98440FFA88F8B8E729
S214403F4095B394F82A30022262F3840384F82A3028
S214403F5000232382638A99440FFA89F924E094F86F
S214403F602A20022161F3840284F82A200022228239
S214403F7099440FFA89F978E7B4F91020002AB8BFB7
S214403F805242B4F91230002BB8BF5B429A4290DCE2
S214403F90B4F91020002AB8BF5242B4F91230002BB0
S214403FA0B8BF5B429A428EDAE38999440FFA89F9A0
S214403FB089E7B6F912305B459AD13046DFF868801B
S214403FC0C047104B984781463046C0470E4B9847EF
S214403FD0009B4B458CD1019B834289D1DFF82080E2
S214403FE0D8F80030D8680B4B9847C11BD8F800303B
S214403FF089B2D8680B4B98477AE700BF015D40000E
S214404000DCC340208D514000BD5140000D51400062
S2144040104D5140009D4141004556400011334000FF
S214404020954E4000A7414100A54F4000002D3FF46B
S214404030D9ACB4F90C30554A1268917D83EAE370E6
S214404040A0EBE370884209DAB4F90E000028B8BF46
S2144040504042814202DD0021E1842185E18C0B440F
S2144040601BB2E384218DE089014409B2218583EAAD
S214404070E376A6EBE376D07D864206DC81EAE177FE
S214404080A7EBE177B842BFF6ADAC94F82A0040F013
S214404090200084F82A0081EAE170A0EBE1708642B5
S2144040A018DD002BCCBF0323022384F82430EB69B1
S2144040B01421284698472046354B984700287FF4D9
S2144040C091AC00220B212846324B98472046304B75
S2144040D0984787E40029CCBF0123002384F8243086
S2144040E0E5E7E06A2C4B9847284B1A68138B9842B2
S2144040F00CD894F82A3013F0020F7FF4EEAC94F804
S214404100343013F0010F3FF4E8AC7BE4234B1868DF
S214404110C3690F21984720461D4B984700287FF4D7
S214404120DCAC002204211D4B18681A4B98472046E9
S214404130174B984700287FF4D0AC94F8343043F0BF
S214404140010384F83430164B98472063D1E7B8F122
S214404150000F3FF4ACADE86B00283FF4C6AD00223C
S2144041601721104B98473846094B984700287FF44C
S21440417076AD00220E21E86B064B98473846044B36
S214404180984700283FF4B1AD69E57047DCC340204E
S21440419011334000954E4000B1444100E0C34020FA
S2144041A095444100FD4E40002DE9F04F87B0C4686D
S2144041B0A44B1C60E368002B00F0A8842046A24B6A
S2144041C0984794F8503013F0040F40F09F849D4D6C
S2144041D0DFF898829C4E9FE0E4689C4B9847C4F872
S2144041E08401ADE0BDF91430002B6CD19DF816303B
S2144041F094F8502012F0080F0BD094F8502000216D
S214404200A16402F0F70261F3000284F8502084F8BB
S214404210201094F820A084F82030039B6362D4F8E2
S2144042205890B9F1000F72D04846894B9847894B51
S214404230186000286BD09DF8163013B10023ADF8F7
S21440424014304846824B9847824B186000285ED010
S2144042509DF81620012A14BF00210121BAF1000F53
S21440426002D1002940F06682BAF1010F14BF002344
S214404270012311B1002B40F0B68212B9002B40F05A
S2144042804E830022734B1A60BDF91430002B3ED08B
S2144042904846714B9847002800F00584BDF9143015
S2144042A0002BC0F2EF83002B31DD00244FF0130BC0
S2144042B0DFF8BCA159464846D0470134BDF9143012
S2144042C09C42F7DB23E0E468604B9847C4F88401DF
S2144042D036E0606D48B1626A029B9A4205D0BDF9ED
S2144042E00A20BDF908105D4B9847BDF80830238476
S2144042F0BDF80A306384237F012B04F11C000CBFF9
S214404300574B584B9847238CA384638CE384286888
S214404310B047002F00F0F58302A92868C04707463B
S2144043202C682046B04700224A4B1A609DF816304B
S2144043302377012B3FF450AF2378042B3FF452AF42
S2144043402C682378012BC4D0022B30D0042B00F0ED
S214404350E581032BDBD1E36D002BD8D0049A03EB29
S214404360820133F922A0B1F902B09DF81630012B34
S21440437000F0B98304F11C0948463B4B9847002897
S214404380C5D1A4F820A0A4F822B09DF81630012B81
S21440439048460CBF324B334B98474846324B9847BB
S2144043A00028B4D1238CA384638CE384AFE79DF8C4
S2144043B01630012B40D094F8503013F0080F0BD035
S2144043C094F850300022A26403F0F70362F300032F
S2144043D084F8503084F82020D4F85890B9F1000F73
S2144043E095D048461A4B98471A4B186000288ED0EE
S2144043F0D4F824C00399616294F820209DF81630C2
S21440440084F82030012B14BF4FF0000E4FF0010E01
S21440441012B9BEF1000F2DD1012A14BF002201228D
S21440442012B1BEF1000F7DD113B9002A40F02181B0
S2144044300022084B1A606AE794F8503013F0080FD1
S214404440CAD064E7DCC34020B932400095444100FE
S21440445029314000E0C34020A93240004556400084
S214404460D13840002D354000113340002D444100E6
S2144044703D314000A04B9847A06403990A2909D0D3
S2144044801B2923D0092931D00B293DD048469B4BC8
S2144044909847CDE74846994B9847994B1868C36963
S2144044A000220B2198471C342046964B98470028FC
S2144044B07FF42DAF00221146914B1868924B9847D7
S2144044C02046904B98470028B2D020E748468B4B72
S2144044D09847002214218A4B18688B4B984704F162
S2144044E01C00884B98470028A2D010E70021484679
S2144044F0864B98474846864B984704F11C00814BAC
S2144045009847002894D002E7002148467F4B9847BA
S2144045104846804B984704F11C007A4B9847002841
S21440452086D0F4E60A2920D094F8503013F0010FD4
S21440453033D0E06C784B9847638B98427FF678AFE1
S2144045406D4B9847E06403990A295AD0092972D0DE
S2144045500B297FD04846694B984704F11C00694BAD
S214404560984700283FF464AFD1E6C36900220C2187
S214404570984704F11C0A5046624B984700287FF43F
S214404580C6AE002201215E4B18685F4B98475046E6
S2144045905C4B98470028C7D0B9E6A06C5E4B98475E
S2144045A0238B984226D994F8503043F0010384F880
S2144045B05030039B0A2B7FF43BAF4F4B9847E06449
S2144045C04F4B1868C36900220F2198471C34204679
S2144045D04C4B984700287FF49AAE00220421484B63
S2144045E01868494B98472046464B984700283FF462
S2144045F01FAF8CE694F8503013F0010F3FF418AF1D
S21440460097E73F4B1868C3690022102198471C342F
S21440461020463C4B984700287FF479AE002205217F
S214404620374B1868384B98472046364B98470028F3
S2144046303FF4FEAE6BE600214846344B984748466A
S214404640334B984704F11C002E4B984700283FF404
S214404650EFAE5CE6002148462C4B984748462D4B2B
S214404660984704F11C00274B984700283FF4E0AEDB
S2144046704DE6CDF80CC0BCF10A0F08D00022A2646B
S21440468094F8503062F3000384F85030D0E6C369A3
S21440469000220E21984704F11C094846194B9847BA
S2144046A000287FF434AE94F8503013F0010F0BD14D
S2144046B000220321124B1868134B98474846114B6B
S2144046C0984700287FF423AE002206210C4B18683A
S2144046D00D4B984748460B4B984700287FF417AE3B
S2144046E000220721064B1868074B98474846054B5B
S2144046F098470028C2D00AE6954441003D31400024
S214404700E0C3402011334000954E400075314000D4
S214404710692F4000812F4000B14441009DF816307B
S214404720012B7FF465AD94F8502012F0080F3FF44B
S21440473070ADECE5804B9847A06403990A2909D0F0
S214404740142933D0132937D01B293BD048467B4BFE
S214404750984796E506AA002302F8113D784B18685C
S214404760C369192198474846764B984720B99DF823
S2144047700730002B7FF485AD714B1868C369002263
S2144047800B2198471C3420466F4B984700287FF4EF
S214404790BEAD002211466A4B18686C4B98472046BF
S2144047A0694B984700283FF46CADB0E5BDF814302F
S2144047B0013BADF8143064E5BDF814300133ADF874
S2144047C014305EE548465D4B9847002214215C4B0A
S2144047D018685E4B984704F11C005B4B98470028CE
S2144047E03FF44FAD93E594F8503013F0010F16D0D8
S2144047F0E06C574B9847638B98427FF642AD4E4BE2
S2144048009847E06403990A295ED0142976D0132984
S2144048107AD1BDF814300133ADF8143031E5A06CD0
S2144048204B4B9847238B984206D894F8503013F059
S214404830010F3FF426ADDBE794F8503043F0010318
S21440484084F850303C4B9847E064039B0A2B06D0D4
S21440485094F8503043F0010384F8503011E506AA2E
S214404860002302F8113D364B1868C3691921984752
S2144048709DF8073073B14846364B98470128E7D92C
S2144048804846304B984780F00101C9B24846324B03
S2144048909847DDE72A4B1868C36900220F219847DE
S2144048A004F11C0A5046284B984700287FF42FAD49
S2144048B000220421224B1868244B98475046224B2E
S2144048C098470028C4D022E51D4B1868C3690022CB
S2144048D0102198471C3420461B4B984700287FF4ED
S2144048E016AD00220521164B1868184B98472046EF
S2144048F0154B984700283FF4C4AC08E5BDF8143083
S214404900013BADF81430BCE448460C4B984704F1E4
S2144049101C000D4B984700283FF4B3ACF7E4039BCC
S2144049200A2B1BD00022A26494F8503062F3000396
S21440493084F85030A5E400BF954441003D31400026
S214404940E0C34020A932400011334000954E40005D
S214404950B1444100A55541007531400006AA0023E8
S21440496002F8113DC369192198479DF80730002B7E
S21440497045D099F8143013F0020F78D094F85030A0
S21440498013F0010F04D04846624B98470128C9D817
S214404990614B1868C36900220E21984704F11C0A2F
S2144049A050465E4B984700287FF4B1AC0022032166
S2144049B0594B18685A4B98475046584B98470028CA
S2144049C07FF4A5AC00220621534B1868544B9847F9
S2144049D05046524B984700287FF499AC0022072156
S2144049E04D4B18684E4B984750464C4B98470028BE
S2144049F07FF48DAC0A2148464A4B984792E7464B8F
S214404A001868C36900220E21984704F11C0A5046D4
S214404A10424B984700287FF47AAC94F8503013F015
S214404A20010F05D1002203213B4B18683C4B9847A9
S214404A3050463A4B984700287FF469AC002206213E
S214404A40354B1868364B98475046344B98470028A5
S214404A507FF45DAC002207212F4B1868304B9847F7
S214404A6050462E4B984700283FF45CAF4FE494F8EE
S214404A70503013F0010F7FF455AF012148462A4BC2
S214404A8098474FE7BFF643AC00244FF0140BDFF8CF
S214404A9094A059464846D0470134BDF914305B428D
S214404AA09C42F6DB33E4BDF91430002B0DDB002BC3
S214404AB07FF72DAC0024DFF87CA04846D047013471
S214404AC0BDF914309C42F8DB21E4BFF620AC00244C
S214404AD0DFF864A04846D0470134BDF914305B4245
S214404AE09C42F7DB13E4B4F92430534504D004F178
S214404AF01C000E4B98473DE4B4F926305B45F6D192
S214404B0038E400230A4A1360034A136007B0BDE83E
S214404B10F08F00BFA5554100E0C340201133400050
S214404B20954E40003D314000753140002D354000E7
S214404B30DCC34020692F4000812F4000502817D00A
S214404B400CD9FF2814D02ED86E2811D026D97F280D
S214404B500ED091280CD0722815D109E0182809D912
S214404B60332816D8302803D2202801D02C280AD142
S214404B70012070471528FBD2072806D80428F7D20C
S214404B8001380128F4D90020704710380328FAD895
S214404B90EEE74028ECD04228F5D1E9E75428E7D0A4
S214404BA06028F0D1E4E748F283039842E0D00CD97D
S214404BB048F2A0039842DBD048F2AD039842D7D0E3
S214404BC048F28E039842DED1D2E748F20C03984270
S214404BD0CED0D8D3024B0344012BD4D8C8E700BF6D
S214404BE0807FFFFF2DE9F0478946904600F1040A92
S214404BF05046114B9847E0B104461FFA89F61FFA13
S214404C0088F50E4F238A33442382638A2B4463827B
S214404C10A38A3344A382E38A2B44E382424649462E
S214404C202046FFF7DFFF21465046B8470446002897
S214404C30E8D1BDE8F08700BFED5341000154410084
S214404C40224B1B7803B1704710B584B0204B984771
S214404C50204B9847204B9847204B9847204B9847E7
S214404C6010212048204CA0474FF4C4711F48A0474D
S214404C7060211F48A0474FF00000162363F3C7008B
S214404C80142262F30C206FF34F304FF000010D22D8
S214404C9062F3C70163F30C216FF34F31154B029358
S214404CA0019300930222144CA047144B9847144B90
S214404CB09847144B9847144B98470120134B9847F6
S214404CC00122024B1A7004B010BD00BFECC3402056
S214404CD0A55741000D69410049514100D546410064
S214404CE0552F400004A243204353410060A1432077
S214404CF054A143202C004020DDA3410025744100F0
S214404D006D8E40007D3740000D2F41001D2541002F
S214404D1038B504460D46084B984730B194F83430C1
S214404D2065F3000384F8343038BD22460023034838
S214404D3003498847FEE700BFEF504100745A4200DF
S214404D40F950410038B504460D46074B984728B100
S214404D5094F83C301D4384F83C5038BD224600232E
S214404D60024803498847FEE7EF504100745A420024
S214404D70F950410038B504460D46084B984730B1C7
S214404D8094F83C3023EA050384F83C3038BD22468C
S214404D900023034803498847FEE700BFEF50410021
S214404DA0745A4200F950410038B504460D46054B4A
S214404DB0984708B1A56138BD2246002302480349FA
S214404DC08847FEE7EF504100745A4200F9504100D0
S214404DD02DE9F04184B0074615461E460C4621B1E3
S214404DE00846254B9847002835D0019400238DF877
S214404DF008300393214B1B6803B1039301AA1F4B52
S214404E001A601F4BD3F800801E601E4B984718B19F
S214404E1083680BB12946984717B129462046B847BC
S214404E20174BC3F80080154B1A6892681A609DF8B5
S214404E300830B3B9CCB194F8343013F0400F16D0E4
S214404E402068B0B1324629460F4B9847012814BF18
S214404E500020012006E0224600230C480C498847E3
S214404E60FEE7002004B0BDE8F0810120FAE701200B
S214404E70F8E70120F6E700BFEF504100E8C34020C6
S214404E80E4C34020DD364000954E4000745A420050
S214404E90F950410098B170B5044616460D46094B88
S214404EA0984728B922460023074808498847FEE71E
S214404EB033462A462146A069054CA04770BD0120CE
S214404EC0704700BFEF504100745A4200F95041000D
S214404ED0D14D400038B504460D46054B984708B1BD
S214404EE0E56138BD22460023024803498847FEE76D
S214404EF0EF504100745A4200F950410020B110B5BD
S214404F00C4691CB1A04710BD01207047012010BDE8
S214404F1038B504460D46054B984708B1256238BD5E
S214404F2022460023024803498847FEE7EF504100E7
S214404F30745A4200F950410038B504460D46094BB4
S214404F40984728B922460023074808498847FEE77D
S214404F502946606A064B9847034600B16062184689
S214404F6038BD00BFEF504100745A4200F95041002E
S214404F70615C410010B50446074B984728B9224665
S214404F800023064806498847FEE700226286E36912
S214404F9006212046984710BDEF504100745A420003
S214404FA0F950410010B50446054B984708B12068B3
S214404FB010BD22460023034803498847FEE700BF4A
S214404FC0EF504100745A4200F950410038B504464B
S214404FD0094B984708B1094D06E022460023084889
S214404FE008498847FEE71C462046A847034600284F
S214404FF0F9D1204638BD00BFEF504100A54F4000D4
S214405000745A4200F95041002DE9F8430446194BC2
S214405010984780B123681BB12046174B98470446F3
S2144050201648174B9847074600B3DFF85490154D7F
S214405030DFF848800AE02246002313481349884791
S214405040FEE739464046A847074678B107F1380696
S2144050503046C84701460028F3D0844206D0304642
S214405060A84701460028ECD08C42F8D13846BDE827
S214405070F88300BFEF504100CD4F400060A1432071
S214405080ED53410001544100745A4200F95041002A
S21440509038B504460D46094B984728B155B12946C0
S2144050A0201D074B984738BD224600230548064931
S2144050B08847FEE7201D054B984738BDEF50410016
S2144050C001544100745A4200F9504100ED534100EA
S2144050D038B505460C460A4B984758B105F10F02BD
S2144050E004F10800234612F8011F03F8011B83420F
S2144050F0F9D138BD2A460023024803498847FEE7CF
S214405100EF504100745A4200F950410010B5044631
S2144051100A4B984728B92246002309480949884738
S214405120FEE72046084B9847034620B1208A1B8A54
S214405130C01A00B210BDB4F9100010BDEF504100C7
S214405140745A4200F9504100A54F400010B504463D
S2144051500A4B984728B922460023094809498847F8
S214405160FEE72046084B9847034620B1608A5B8A94
S214405170C01A00B210BDB4F9120010BDEF50410085
S214405180745A4200F9504100A54F400010B50446FD
S214405190074B984728B1A08A0130238AC01A00B22C
S2144051A010BD22460023034803498847FEE700BF58
S2144051B0EF504100745A4200F950410010B5044681
S2144051C0074B984728B1E08A0130638AC01A00B27C
S2144051D010BD22460023034803498847FEE700BF28
S2144051E0EF504100745A4200F950410010B5044651
S2144051F0064B984720B194F8490000F0010010BDD6
S21440520022460023024803498847FEE7EF50410004
S214405210745A4200F950410009B92830704700B529
S21440522083B08DF80010002301936A460821044B92
S214405230984701280CBF0198002003B05DF804FB96
S214405240FD4E40002DE9F84F81468A4693461E465D
S2144052501A481B4B98470446DFF86080194F06E013
S214405260A3885B4514D0BBF1FF0F11D02C46B44247
S21440527021D004B321464046B847054620684845F5
S214405280F4D1A179BAF1FF0FEAD05145EED1E7E764
S2144052900D4B98470D4B9847A1880D4B98470021DA
S2144052A020460C4B9847214640460B4B9847204695
S2144052B00A4B9847DAE7BDE8F88F00BF04A24320C0
S2144052C0F75341000F544100195240004FA240008E
S2144052D0B99740006D474100A5544100B958410078
S2144052E038B504460D46064B984738B1054B9847A7
S2144052F00023FF2229462046034CA04738BD00BF66
S2144053001952400061A2400045524000F8B505469B
S2144053100E4600240D4FE1B22846B84730B14279D8
S21440532066F3C30242710134402CF4D14024074F47
S21440533021462846B84738B1427966F3C3024271DF
S2144053400134E4B2FF2CF3D1F8BD00BF195240003F
S214405350F8B504681748184B984708B30146002725
S214405360144E164D03E03046A847014678B18C42AD
S214405370F9D00A6823689A42F5D14B6823F07F42F9
S214405380636823F07F439A4208BF0127EBE73FB1AB
S214405390214608480A4B984720460A4B9847F8BD8E
S2144053A0A1792068084B9847084B9847A188084B36
S2144053B09847EDE704A24320ED53410001544100D5
S2144053C0A5544100B9584100195240004FA2400030
S2144053D0B997400010B50446064B984720B194F85C
S2144053E03400C0F3001010BD224600230248034993
S2144053F08847FEE7EF504100745A4200F95041009A
S2144054002DE9F04782B004460D46354B984720B10B
S2144054100026304602B0BDE8F08706462046314BAF
S21440542098470746304B98478046304B98478742C8
S21440543010D040462E4B984787420BD040462D4BC7
S2144054409847874206D040462B4B9847874201D024
S2144054500126DEE7B4F9327004F10F0304F11700B9
S2144054606A4613F8011F02F8011B9842F9D1BBB2F5
S214405470BDF80020D21AADF80020BDF80220D21A9E
S214405480ADF80220BDF804201A44ADF80420BDF85B
S21440549006201344ADF806306A4629462846174B80
S2144054A0984782460028B4D02046154B9847044675
S2144054B0A0B1124FDFF82880DFF8449004F11002C4
S2144054C029462846B8470028A3D02046C04700288B
S2144054D09FD12046C84704460028EFD1564698E755
S2144054E0D5534000CD4F400009504000B52D4000F8
S2144054F0D12D4000ED2D4000092E40005749410077
S214405500A54F400030B583B005460C460F4B984734
S214405510A8B1631E07346A4613F8011F02F8011B40
S214405520A342F9D169462846094B984728B12846F0
S214405530084B98476946084B984703B030BD2A4603
S2144055400023064806498847FEE700BFEF50410063
S2144055500154400009504000718E4000745A420089
S214405560F950410030B583B00446184B984738B3DD
S214405570B4F9323004F10F0204F11705694612F807
S214405580010F01F8010BAA42F9D19BB2BDF80020E9
S214405590D21AADF80020BDF80220D21AADF802208B
S2144055A0BDF804201A44ADF80420BDF80620134484
S2144055B0ADF8063069462046054B984703B030BDE7
S2144055C022460023034804498847FEE7EF5041003F
S2144055D005554000745A4200F9504100F8B505465A
S2144055E0114B984728B92A46002310481049884747
S2144055F0FEE728460F4B98470446061D30460E4B9E
S214405600984785420FD020460C4FB84701232A467C
S214405610314630460A4EB047E3692A4601212046C5
S21440562098472046B847F8BDEF504100745A4200AC
S214405630F9504100A54F4000ED53410065554000EC
S214405640315541002DE9F04383B004460F461546D8
S214405650244B984700283FD026682EB1338A1F44F3
S2144056603FB2738A1D442DB2238AFB1A1FFA83F871
S2144056700FFA88F7638AED1AADB20FFA85F9B9F1D9
S214405680000F00D12FB32046174B98476946204657
S214405690164B9847238A43442382638A2B4463826B
S2144056A0A38A4344A382E38A1D44E5824A46394698
S2144056B020460F4B9847E3696A46022120469847A2
S2144056C026B1F36922460121304698472046064BCC
S2144056D0984703B0BDE8F0832246002305480649B4
S2144056E08847FEE7EF50410065554000D1504000E6
S2144056F0E54B4000745A4200F950410038B5044624
S2144057000D46094B984728B92246002307480849C2
S2144057108847FEE72046074B9847024629462046DC
S214405720054B984738BD00BFEF504100745A4200C1
S214405730F95041004D5140004556400038B50446AA
S2144057400D46094B984728B9224600230748084982
S2144057508847FEE72046074B98472A46014620469C
S214405760054B984738BD00BFEF504100745A420081
S214405770F95041000D51400045564000F0B583B009
S21440578004461D469DF8206001F1100001AB04F16F
S2144057901001164FB8472046154B9847B0F91230BF
S2144057A0BDF80610BDF928200A44BDF80470BDF9BE
S2144057B024103944008A091A09B2ADF80410D21AE6
S2144057C012B2ADF8062005B11EB935B94EB903B0D0
S2144057D0F0BD2046074B9847F9E72046064B9847CA
S2144057E0F5E711462046054B9847F0E74D4C4100FB
S2144057F0A54F400045564000FD5640003D574000EE
S2144058002DE9F04385B004460D4690461F46BDF947
S2144058103060194B984728B9224600231748184944
S2144058208847FEE74DB12846134B984750B92A465D
S2144058300023124812498847FEE72046114B9847F6
S2144058400546F0E702960197012300934246294613
S2144058502046DFF83490C84784F84880A4F844705F
S214405860A4F84660256494F849306FF3410384F801
S214405870493005B0BDE8F083EF504100745A42000D
S214405880F9504100A54F40007D5740002DE9F04FAC
S21440589083B007460190894614469A469DF830B034
S2144058A0A84B984706463846A74B9847054638467D
S2144058B0A64B984780460028B8BF00F1010848F339
